:020000040800F2
:1000000000280020F9080008A1080008A30800083B
:10001000A5080008A7080008A908000800000000BB
:10002000000000000000000000000000AB08000815
:10003000AD08000800000000AF080008B108000883
:100040004109000841090008410900084109000868
:100050004109000841090008410900084109000858
:100060004109000841090008410900084109000848
:100070004109000841090008410900084109000838
:100080004109000841090008410900084109000828
:100090004109000841090008410900084109000818
:1000A0004109000841090008410900084109000808
:1000B000410900084109000800000000410900084A
:1000C000410900080000000000000000410900088C
:1000D000000000004109000841090008000000007C
:1000E000410900084109000841090008000000001A
:1000F0000000000000000000000000000000000000
:0C01000000000000000000005FF808F1A3
:10010C0010B5054C237833B9044B13B10448AFF345
:10011C0000800123237010BD70000020000000003F
:10012C00A81A000808B5034B1BB103490348AFF3E9
:10013C00008008BD0000000074000020A81A000810
:10014C0004222C4B10215A6102225A61202259613F
:10015C005A6140225A6180225A61DA6842F00202E6
:10016C00DA60C20656BF4FF4801219611A6181061B
:10017C004CBF20224FF400121A6142064CBF4022A1
:10018C004FF4800201061A614CBF80224FF400022A
:10019C001A61022210215A61202259615A614022AF
:1001AC005A6180225A61DA6842F00202DA60C207B0
:1001BC0056BF4FF4801219611A6182074CBF20227E
:1001CC004FF4001241071A614CBF40224FF48002D9
:1001DC001A6102074CBF80224FF400021A610222FE
:1001EC005A6110225A6120225A6140225A6180229F
:1001FC005A617047000801402D4B1021DA6842F01B
:10020C000402DA6002225A61202259615A614022AA
:10021C005A6180225A61DA6842F00202DA60C20640
:10022C0056BF4FF4801219611A6181064CBF20220F
:10023C004FF400121A6142064CBF40224FF4800268
:10024C0001061A614CBF80224FF400021A6102228F
:10025C0010215A61202259615A6140225A61802230
:10026C005A61DA6842F00202DA60C20756BF4FF4F4
:10027C00801219611A6182074CBF20224FF40012C0
:10028C0041071A614CBF40224FF480021A610207E9
:10029C004CBF80224FF400021A6102225A611022D4
:1002AC005A6120225A6140225A6180225A61704759
:1002BC000008014010B5441E14F8010F00B910BD20
:1002CC00FFF79AFFF8E770B5164605460C46FA207C
:1002DC0000F07AFB0220FFF733FF322000F074FBB2
:1002EC0045EA0600204340F02000FFF729FF3220AA
:1002FC0000F06AFB0620FFF723FF322000F064FBBE
:10030C000E20FFF71DFF322000F05EFB0C20FFF7E4
:10031C0017FF322000F058FB0120FFF711FFBDE85A
:10032C007040642000F050BB012808B509D101F1E0
:10033C007F00C0B2FFF704FFBDE80840052000F0C5
:10034C0043BB0228F8D1A1F14100F2E710B51446E5
:10035C00FFF7EAFF2046FFF7ADFFBDE81040052090
:10036C0000F032BB08B50120FFF7EAFEBDE80840FB
:10037C00052000F029BB000070B5424A424D434CA9
:10038C002B88127886B024F81320FFF7EBFFE38854
:10039C0022880193A3883E49009302A8638800F049
:1003AC0003FF01213B4A0846FFF7D0FF0121022041
:1003BC0002AAFFF7CBFF2B8801339BB2032B2B80B8
:1003CC004DD92388344EC3EB431203EB820263886E
:1003DC0003EB830303EB83039B0003EBC203E28871
:1003EC001344A28802EB820203EB420340F2D24296
:1003FC009BB29342338034D14FF4FA7000F0E4FA9C
:10040C0001224FF40051254800F024FCFFF7AAFF0D
:10041C000121234A0846FFF799FF0121214A0220B6
:10042C00FFF794FF4FF4FA6000F0CEFA00224FF47D
:10043C0000511A4800F00EFCFFF794FF0121154AF9
:10044C000846FFF783FF01210220174AFFF77EFFC2
:10045C0000232B80338023806380A380E38006B04D
:10046C0070BDFFF77FFF0121104A0846FFF76EFFB2
:10047C00012102200E4AFFF769FF4FF4FA6000F0E9
:10048C00A3FAD9E794000020960000208C000020ED
:10049C00C01A0008C91A000898000020001001407A
:1004AC00D81A0008E21A0008EF1A0008F41A00081B
:1004BC00FE1A000808B5FFF755FF0121094A084646
:1004CC00FFF744FF084A01210220FFF73FFF0023FA
:1004DC00064A1380064A1380064A13805380938081
:1004EC00D38008BDC91A0008EF1A00089600002036
:1004FC00980000208C000020012210B511467B488A
:10050C0000F0A8FB00220221784800F0A3FB042194
:10051C007648002200F09EFB0821744800F094FB02
:10052C0000284ED00122724B704C1A70FFF724FF3A
:10053C000821204600F088FB0028F9D10022012177
:10054C006A4800F087FB01220221684800F082FB18
:10055C0004216648002200F07DFB0821634800F06E
:10056C0073FB002856D00222614B604C1A70FFF7C7
:10057C0003FF0821204600F067FB0028F9D1002278
:10058C0001215A4800F066FB00220221574800F076
:10059C0061FB04215548012200F05CFB0821534803
:1005AC0000F052FB00286CD00322514B4F4C1A70B8
:1005BC00FFF7E2FE0821204600F046FB0028F9D1A7
:1005CC0010BD1021494800F03FFB60B10422484B9C
:1005DC00464C1A70FFF7D0FE1021204600F034FB79
:1005EC000028F9D1AAE72021404800F02DFB60B18A
:1005FC0007223F4B3D4C1A70FFF7BEFE20212046D0
:10060C0000F022FB0028F9D198E74021374800F090
:10061C001BFB93E71021354800F016FB60B1052257
:10062C00334B324C1A70FFF7A7FE1021204600F016
:10063C000BFB0028F9D1A2E720212C4800F004FB89
:10064C00044660B108222A4B284C1A70FFF794FE1E
:10065C002021204600F0F8FA0028F9D18FE740213C
:10066C00224800F0F1FA002889D0214B1C70FFF7CA
:10067C0083FE1E4C4021204600F0E6FA0028F9D1FA
:10068C007DE71021194800F0DFFA60B10622184B03
:10069C00164C1A70FFF770FE1021204600F0D4FAA9
:1006AC000028F9D18CE72021104800F0CDFA60B178
:1006BC0009220F4B0D4C1A70FFF75EFE20212046CD
:1006CC0000F0C2FA0028F9D17AE74021074800F07F
:1006DC00BBFA00283FF474AFFFF7ECFE034C40214B
:1006EC00204600F0B1FA0028F9D169E7000C01406E
:1006FC0094000020202210B590B000210DEB0200D8
:10070C0000F04AFD0021142201A800F045FD02244E
:10071C0001224FF4803306A8CDE90623CDE90D4321
:10072C000A9200F09DFA014608B172B6FEE70F235B
:10073C00CDE90134B0230590CDE9033001A800F0D8
:10074C0065FC08B172B6FEE710B010BD00B589B0FB
:10075C0000F016F9FFF7CEFF102200210DEB02007E
:10076C0000F01AFD394B4FF400519A69384842F0A9
:10077C0010029A619A69002502F010020092009A08
:10078C009A69012442F020029A619A69022602F0C9
:10079C0020020192019A9A6942F004029A619A69C4
:1007AC0002F004020292029A9A6942F008029A61DB
:1007BC009B69002203F008030393039B00F04AFAA1
:1007CC000022F621234800F045FA00220721224896
:1007DC0000F040FA4FF400531D4804A9CDE904344D
:1007EC00CDE9065600F05AF9F6231A4804A9CDE9CA
:1007FC000434CDE9065600F051F90723164804A934
:10080C00CDE90434CDE9065600F048F978231248B6
:10081C0004A9CDE90435069500F040F908222946D3
:10082C002846FFF750FDFFF79DFD214620460B4A59
:10083C00FFF78CFD21463046094AFFF787FDFFF78D
:10084C005BFE642000F0C0F8F9E700BF0010024026
:10085C000010014000080140000C0140C91A0008BA
:10086C00EF1A00080A4B82B09A6942F001029A61B1
:10087C009A6902F001020092009ADA6942F0805201
:10088C00DA61DB6903F080530193019B02B070477E
:10089C0000100240FEE7FEE7FEE7FEE7FEE77047CA
:1008AC007047704700F07EB80B4A0346116810B5CC
:1008BC0009B90A491160106809490A4C0344091B1B
:1008CC008B4206D900F03EFC0C2303604FF0FF3046
:1008DC0010BD1360FCE700BF9C000020B800002096
:1008EC000028002000040000704700000C480D494F
:1008FC000D4A002302E0D458C4500433C4188C426F
:10090C00F9D30A4A0A4C002301E013600432A242D4
:10091C00FBD3FFF7E9FF00F01BFCFFF717FF704755
:10092C000000002070000020681B000870000020F0
:10093C00B4000020FEE7000038B50E4B05461878D1
:10094C004FF47A73B3FBF0F30B4A1068B0FBF3F07F
:10095C0000F090F8044658B90F2D09D802462946E4
:10096C004FF0FF3000F054F82046044B1D6038BDAA
:10097C000120FCE7040000200000002008000020FB
:10098C00074A08B51368032043F01003136000F006
:10099C002DF80F20FFF7D0FFFFF764FF002008BDF4
:1009AC0000200240034A044B11681B780B4413606F
:1009BC00704700BFA000002004000020014B186805
:1009CC00704700BFA000002038B50446FFF7F6FFC3
:1009DC000546631C1EBF044B1B78E418FFF7EEFFA3
:1009EC00431BA342FAD338BD04000020074903027D
:1009FC00CA6803F4E06322F4E0621204120C13439D
:100A0C0043F0BF6343F40033CB60704700ED00E06C
:100A1C00164B30B5DC68C4F30224C4F10703251D62
:100A2C00042B28BF0423062D4FF0FF3598BF00245C
:100A3C0005FA03F388BF033C21EA0303A34005FA3C
:100A4C0004F422EA0402002843EA0203ACBF00F1DA
:100A5C006040074A4FEA0313DBB2ABBF00F56140BD
:100A6C0000F00F0080F80033135430BD00ED00E0AF
:100A7C0014ED00E00138B0F1807F0BD24FF0E02391
:100A8C00F021054A586182F8231000200722986152
:100A9C001A6170470120704700ED00E02DE9F74F17
:100AAC0000221646614F624BDFF888C1DFF888E1FF
:100ABC000D6835FA06F402D103B0BDE8F08F4FF0A3
:100ACC00010808FA06F805EA080438EA050577D1A2
:100ADC004D68032D07D8013D022D00F28280DFE81E
:100AEC0005F092979D00122D00F095806AD8112D7B
:100AFC0000F08B80FF2C98BF82464FF00F0988BF07
:100B0C0000F1040A4FEA8605DAF8008088BF203D20
:100B1C0009FA05FB28EA0B0802FA05F548EA05056F
:100B2C00CAF80050D1F804A01AF0805F48D0BD6913
:100B3C0026F0030845F00105BD61BD6908F1804848
:100B4C0005F00105019508F5803806F0030B019DB1
:100B5C004FEA8B0BD8F8085009FA0BF925EA09096A
:100B6C00364DA8425ED005F58065A8425CD005F5EF
:100B7C008065A8420CBF0225032505FA0BF545EA52
:100B8C000905C8F808501D681AF4803F14BF2543A6
:100B9C00A5431D605D681AF4003F14BF2543A543AF
:100BAC005D609D681AF4801F14BF2543A5439D60AA
:100BBC00DD681AF4001F14BF2C4325EA0404DC6022
:100BCC00013675E7DFF878904D450AD015D8754594
:100BDC0007D0A9F580394D4503D0A9F580194D45AD
:100BEC0088D18A68E2B1012A08BFC0F810804FF0A2
:100BFC00080218BFC0F814807CE7DFF848904D4518
:100C0C00EFD06545ECE7CA6874E7CA68043271E74F
:100C1C00CA6808326EE7CA680C326BE7002269E7D3
:100C2C00042267E70025A8E70125A6E7001002408B
:100C3C0000040140000032100000121000080140B6
:100C4C0000002210000031108368194214BF0120EB
:100C5C00002070470AB1016170470904FBE70000EE
:100C6C002DE9F341054638B30368DB0710D42B6834
:100C7C009F075ED42B68190700F195802B685A07E3
:100C8C0000F1C180E869002840F02C81002029E0A7
:100C9C00904C636803F00C03042B07D0636803F0DB
:100CAC000C03082B0AD16368DE0307D523689C0369
:100CBC00DDD56B68002BDAD1012013E06B68B3F53E
:100CCC00803F12D1236843F480332360FFF776FE14
:100CDC00064623689803CAD4FFF770FE801B64286D
:100CEC00F7D9032002B0BDE8F0819BB9236823F447
:100CFC0080332360236823F480232360FFF75EFE98
:100D0C00064623689903B2D5FFF758FE801B64286A
:100D1C00F7D9E6E7B3F5A02F236803D143F480237A
:100D2C002360CFE723F480332360236823F48023EC
:100D3C00CBE7684C636813F00C0F07D0636803F0C3
:100D4C000C03082B10D16368DA030DD423689B07BE
:100D5C0002D52B69012BAFD123686A6923F0F80304
:100D6C0043EAC203236085E72A695B4B6AB101221F
:100D7C001A60FFF723FE064623689F07ECD4FFF7A3
:100D8C001DFE801B0228F7D9ABE71A60FFF716FE91
:100D9C000646236898077FF56DAFFFF70FFE801BA3
:100DAC000228F6D99DE7AA694A4E4B4BE2B10122C3
:100DBC00C3F88024FFF702FE0446736A9B070DD527
:100DCC004FF4FA52454B1B68B3FBF2F3019300BF8F
:100DDC00019B5A1E0192002BF9D14FE7FFF7EEFD54
:100DEC00001B0228E9D97CE7C3F88024FFF7E6FD55
:100DFC000446736A9F077FF541AFFFF7DFFD001BC9
:100E0C000228F6D96DE7334CE369D80024D40127C6
:100E1C00E36943F08053E361E36903F0805300938B
:100E2C00009B2F4E3368D90518D5EB68012B26D1C2
:100E3C00236A43F001032362FFF7C0FD41F28838B7
:100E4C000646236A9B073FD5002F3FF41BAFE3698F
:100E5C0023F08053E36115E70027E2E7336843F49E
:100E6C0080733360FFF7AAFD80463368DA05DCD463
:100E7C00FFF7A4FDA0EB08006428F6D931E7ABB965
:100E8C00236A41F2883823F001032362236A23F09A
:100E9C0004032362FFF792FD0646236A9807D3D515
:100EAC00FFF78CFD801B4045F7D91AE7052B236A09
:100EBC0003D143F004032362BAE723F00103236256
:100ECC00236A23F00403B6E7FFF778FD801B404547
:100EDC00B7D906E700100240000042420000002093
:100EEC00007000402A4C636803F00C03082B3ED0C2
:100EFC000022284B02281A662CD1FFF75FFD06460C
:100F0C002368990120D42B6AB3F5803F05D1626820
:100F1C00A96822F400320A436260696A62680B4372
:100F2C0022F474121343012263601A4B1A66FFF702
:100F3C0045FD054623689A013FF5A8AEFFF73EFD37
:100F4C00401B0228F6D9CCE6FFF738FD801B02289F
:100F5C00D6D9C6E6FFF732FD054623689B017FF51F
:100F6C0095AEFFF72BFD401B0228F6D9B9E60128F8
:100F7C003FF4B8AE63682A6A03F4803191427FF47F
:100F8C009BAE6A6A03F4701393423FF47FAE93E610
:100F9C00001002400000424230B5184B87B002AC42
:100FAC0003F11005224618685968083303C2AB4296
:100FBC001446F7D140F201231149ADF804304B68C7
:100FCC0003F00C02082A17D1C3F3834218326A4487
:100FDC00DB0312F8100C0CD54B680A4AC3F34043E0
:100FEC00504318336B4413F8143CB0FBF3F007B0C8
:100FFC0030BD054B5843FAE70248F8E7191B0008C7
:10100C000010024000127A0000093D002DE9F04169
:10101C000D46044610B90120BDE8F081444A13681E
:10102C0003F007038B4228D321688E0730D4CA07FC
:10103C0043D43F4A136803F00703AB4265D82268D8
:10104C003C4D12F0040F6CD1130706D56B68226966
:10105C0023F4605343EAC2036B60FFF79DFF6B6898
:10106C00354AC3F30313D35CD840344B1860344B6C
:10107C001868FFF761FC0020CEE7136823F0070324
:10108C000B431360136803F007038B42C3D1CBE708
:10109C00284B11F0040F1EBF5A6842F4E0625A60EC
:1010AC00080742BF5A6842F460525A605A68A068F6
:1010BC0022F0F00202435A60B9E762681D4E012A21
:1010CC0033681AD113F4003FA5D0736841F2883805
:1010DC0023F0030313437360FFF770FC0746736838
:1010EC00626803F00C03B3EB820FA2D0FFF766FC2F
:1010FC00C01B4045F3D903208EE7022A02D113F01E
:10110C00007FE1E713F0020FDEE7136823F007031B
:10111C002B431360136803F00703AB427FF47BAFE0
:10112C008DE76B68E16823F4E0630B436B608BE73E
:10113C000020024000100240091B000800000020A3
:10114C0008000020014B1868704700BF0C000020FD
:10115C0070B500260C4D0D4C641BA410A64209D191
:10116C0000F09CFC00260A4D0A4C641BA410A642FD
:10117C0005D170BD55F8043B98470136EEE755F89C
:10118C00043B98470136F2E7601B0008601B00081F
:10119C00601B0008641B000803460244934200D104
:1011AC00704703F8011BF9E70EB46FF0004100B56E
:1011BC009CB01DAB02900690079104910848094918
:1011CC0053F8042B0591006802A9019300F068F80C
:1011DC000022029B1A701CB05DF804EB03B0704740
:1011EC000C0000200802FFFF2DE9F0478E688246B4
:1011FC009E420C4690461F4638D88A8912F4906F4E
:10120C0032D0256809690133A5EB010965694B44A6
:10121C0005EB450505EBD5756D109D4238BF1D4698
:10122C00530531D5294600F06FFB064650B90C2307
:10123C004FF0FF30CAF80030A38943F04003A3817C
:10124C00BDE8F0874A46216900F0CEFAA38923F461
:10125C00906343F08003A38126614E4426603E4692
:10126C006561A5EB0905A560BE4200D93E46324634
:10127C004146206800F0C6FAA36800209B1BA360BF
:10128C00236833442360DBE72A4600F0B1FB0646B3
:10129C000028E1D15046216900F0CEFAC7E70000E2
:1012AC002DE9F04F98468B8907461B060D461446D0
:1012BC009DB00ED50B6963B9402100F025FB286069
:1012CC00286120B90C233B604FF0FF30D1E0402364
:1012DC006B610023099320238DF8293030234FF0C4
:1012EC000109CDF80C80DFF8A4818DF82A30234653
:1012FC009A4613F8012B0AB1252AF9D1BAEB040B43
:10130C000BD05B46224629463846FFF76DFF01306D
:10131C0000F0AA80099A5A4409929AF80030002BDE
:10132C0000F0A28000234FF0FF32CDE905230AF133
:10133C00010A049307938DF853301A9354460522EF
:10134C0014F8011B514800F041FA049AD8B9D006A0
:10135C0044BF20238DF85330110744BF2B238DF845
:10136C0053309AF800302A2B15D0544600204FF0F9
:10137C000A0C079A214611F8013B303B092B4ED938
:10138C00B0B1079214E0A0EB080309FA03F313437E
:10139C00A2460493D2E7039B191D1B680391002BF3
:1013AC00BBBF5B4242F0020207930793B8BF0492A3
:1013BC0023782E2B0CD163782A2B35D1039B023446
:1013CC001A1D1B680392002BB8BF4FF0FF33059317
:1013DC00DFF8BCA003225046217800F0F7F940B1A9
:1013EC004023A0EB0A0003FA00F0049B01340343F2
:1013FC00049314F8011B062226488DF8281000F0DF
:10140C00E5F9002838D0244B1BBB039B073323F092
:10141C00070308330393099B3344099367E70C468E
:10142C0001200CFB0232A5E700234FF00A0C1946F1
:10143C0001340593204610F8012B303A092A03D9C0
:10144C00002BC5D00591C3E7044601230CFB0121F9
:10145C00F0E703AB00932A463846104B04A9AFF3D0
:10146C000080421C0646D6D1AB895B063FF52CAFFB
:10147C0009981DB0BDE8F08F03AB00932A4638469F
:10148C00064B04A900F07CF8EBE700BF2A1B000810
:10149C00301B0008341B000800000000F511000888
:1014AC002DE9F047164699468A680B690746934220
:1014BC00B8BF1346336091F843200C46DDF820800A
:1014CC000AB1013333602368990642BF3368023393
:1014DC003360256815F0060506D104F1190AE36896
:1014EC0032689B1AAB4228DC94F84320131E226806
:1014FC0018BF012392062DD44946384604F1430205
:10150C00C047013020D02368E56803F00603042BA4
:10151C0018BF002532684FF00006A36808BFAD1A4B
:10152C00226908BF25EAE5759342C4BF9B1AED18E2
:10153C001A34B5421AD1002008E00123524649461C
:10154C003846C047013003D14FF0FF30BDE8F0877B
:10155C000135C4E73020E11881F843005A1C94F897
:10156C0045102244023382F84310C5E7012322467A
:10157C0049463846C0470130E6D00136D9E700006D
:10158C002DE9FF470F7E9146782F80460C469A46F0
:10159C000C9D01F1430207D8622F0AD8002F00F0EE
:1015AC00D980582F00F0A48004F1420584F84270D1
:1015BC003AE0A7F16303152BF6D801A151F823F0FB
:1015CC002516000839160008B5150008B5150008D1
:1015DC00B5150008B515000839160008B515000832
:1015EC00B5150008B5150008B51500084717000813
:1015FC006916000829170008B5150008B51500086C
:10160C0069170008B515000869160008B51500081B
:10161C00B5150008311700082B681A1D1B682A60C5
:10162C0004F1420584F842300123A4E020682968C3
:10163C00060601F104030AD50E682B60002E03DAAE
:10164C002D23764284F843300A235E4819E00E6855
:10165C0010F0400F2B6018BF36B2EFE72B682068F4
:10166C00191D2960010601D51E6802E04606FBD54E
:10167C001E886F2F0CBF08230A235248002184F8C0
:10168C0043106568002DA8BF2168A560A4BF21F098
:10169C00040121600EB9002D4DD01546B6FBF3F1B7
:1016AC0003FB1167C75D05F8017D3746BB420E464B
:1016BC00F4D9082B0BD12368DE0708D523696168A0
:1016CC009942DEBF302305F8013C05F1FF35521B72
:1016DC0022614B4621464046CDF800A003AAFFF7F5
:1016EC00DFFE01304CD14FF0FF3004B0BDE8F08785
:1016FC00344881F845702968236851F8046B2960D7
:10170C001D0614D5DF0744BF43F0200323601EB928
:10171C00236823F0200323601023AFE7236843F0F2
:10172C00200323607823284884F84530E3E75906E2
:10173C0048BFB6B2E6E71546BBE72B682668181D0E
:10174C006169286035061B6801D5196002E07006D6
:10175C00FBD51980002315462361BAE72B680021BD
:10176C001A1D2A601D686268284600F02FF808B11F
:10177C00401B606063682361002384F84330A8E752
:10178C002A46494640462369D0470130ABD02368EE
:10179C009B0713D4E068039B9842B8BF1846A4E794
:1017AC000123324649464046D04701309BD0013593
:1017BC00E36803995B1AAB42F2DCEBE7002504F11A
:1017CC001906F5E73B1B00084C1B0008034610B537
:1017DC00C9B202449342184601D1002003E00478B8
:1017EC0001338C42F6D110BD0A44914200F1FF3313
:1017FC0000D1704710B511F8014B914203F8014F1D
:10180C00F9D110BD884210B501EB020402D9844213
:10181C00234607D8431EA14208D011F8012B03F828
:10182C00012FF8E7014602448A4200D110BD13F89B
:10183C00014D02F8014DF7E738B50546002940D0B7
:10184C0051F8043C0C1F002BB8BFE41800F010F941
:10185C001C4A136833B9636014602846BDE83840ED
:10186C0000F00CB9A34208D9206821188B4201BFA3
:10187C0019685B6809182160EDE71A465B680BB1C3
:10188C00A342FAD911685018A0420BD12068014428
:10189C00501883421160E0D118685B6801441160F4
:1018AC005360DAE702D90C232B60D6E720682118A5
:1018BC008B4201BF19685B68091821606360546032
:1018CC00CBE738BDA400002070B50E4E0C46316835
:1018DC00054611B900F0BCF830602146284600F0EE
:1018EC00B7F8431C0AD0C41C24F00304A04207D050
:1018FC00211A284600F0ACF8013001D14FF0FF342A
:10190C00204670BDA80000202DE9F041CD1C25F02B
:10191C00030508350C2D38BF0C25002D074601DBBF
:10192C00A94205D90C2300263B603046BDE8F08166
:10193C002E4E00F09DF833681C4634BB29463846C1
:10194C00FFF7C2FF431C04464DD134682646002ED7
:10195C0040D123683146384604EB030800F078F890
:10196C0080453AD1216803356D1A25F003050835F9
:10197C000C2D38BF0C2538462946FFF7A5FF013042
:10198C002BD023682B4423600EE02268521B1ED4FC
:10199C000B2A16D96119A342256018BF59606368D8
:1019AC0008BF316062514B60384604F10B0600F001
:1019BC0065F826F00706231DF21AB6D09B1BA35020
:1019CC00B3E76268A3420CBF32605A60ECE723466F
:1019DC006468B2E734467668B9E70C2338463B6056
:1019EC0000F04CF8A1E72560DEE700BFA400002062
:1019FC002DE9F041804614460E4621B91146BDE84A
:101A0C00F041FFF781BF2AB9FFF716FF254628469C
:101A1C00BDE8F08100F038F88442074602D8B4EBF8
:101A2C00500F12D821464046FFF76EFF054600289E
:101A3C00EDD0BC422246314628BF3A46FFF7D4FED1
:101A4C0031464046FFF7F8FEE1E73546DFE7000098
:101A5C0038B50023054D044608462B60FEF724FFDD
:101A6C00431C02D12B6803B1236038BDAC000020AD
:101A7C00014800F011B800BFB0000020014800F090
:101A8C000CB800BFB000002051F8043C181F002B0C
:101A9C00BCBF0B58C018704770477047F8B500BFF3
:101AAC00F8BC08BC9E467047F8B500BFF8BC08BC33
:041ABC009E4670478B
:101AC0002564256425642564005349465245204712
:101AD0004952494E495A3A00202020202020484FA0
:101AE00053002020202047454C44494E495A00309D
:101AF000303030002020202053494652450020201D
:101B0000202059414E4C49530000000000000000C5
:101B1000000102030406070809020304050607087A
:101B2000090A0B0C0D0E0F101000232D302B200076
:101B3000686C4C0065666745464700303132333487
:101B40003536373839414243444546003031323327
:101B500034353637383961626364656600000000E9
:041B60003101000847
:041B64000D01000867
:101B68000024F40001000000100000001000002014
:101B7800000000000000000000000000000000005D
:101B8800000000000000000000000000000000004D
:101B9800000000000000000000000000000000003D
:101BA800000000000000000000000000000000002D
:101BB800000000000000000000000000000000001D
:101BC800000000000000000000000000000000000D
:04000005080008F9EE
:00000001FF
